{
  "_format": "hh-sol-artifact-1",
  "contractName": "AcademicRecords",
  "sourceName": "contracts/AcademicRecords.sol",
  "abi": [
    {
      "inputs": [],
      "stateMutability": "nonpayable",
      "type": "constructor"
    },
    {
      "inputs": [],
      "name": "AccessControlBadConfirmation",
      "type": "error"
    },
    {
      "inputs": [
        {
          "internalType": "address",
          "name": "account",
          "type": "address"
        },
        {
          "internalType": "bytes32",
          "name": "neededRole",
          "type": "bytes32"
        }
      ],
      "name": "AccessControlUnauthorizedAccount",
      "type": "error"
    },
    {
      "anonymous": false,
      "inputs": [
        {
          "indexed": true,
          "internalType": "address",
          "name": "student",
          "type": "address"
        },
        {
          "indexed": true,
          "internalType": "uint256",
          "name": "index",
          "type": "uint256"
        },
        {
          "indexed": true,
          "internalType": "address",
          "name": "issuer",
          "type": "address"
        },
        {
          "indexed": false,
          "internalType": "bytes32",
          "name": "recordHash",
          "type": "bytes32"
        },
        {
          "indexed": false,
          "internalType": "string",
          "name": "ipfsHash",
          "type": "string"
        },
        {
          "indexed": false,
          "internalType": "uint256",
          "name": "timestamp",
          "type": "uint256"
        }
      ],
      "name": "CredentialIssued",
      "type": "event"
    },
    {
      "anonymous": false,
      "inputs": [
        {
          "indexed": true,
          "internalType": "address",
          "name": "student",
          "type": "address"
        },
        {
          "indexed": true,
          "internalType": "uint256",
          "name": "index",
          "type": "uint256"
        },
        {
          "indexed": true,
          "internalType": "address",
          "name": "revoker",
          "type": "address"
        },
        {
          "indexed": false,
          "internalType": "uint256",
          "name": "timestamp",
          "type": "uint256"
        }
      ],
      "name": "CredentialRevoked",
      "type": "event"
    },
    {
      "anonymous": false,
      "inputs": [
        {
          "indexed": true,
          "internalType": "address",
          "name": "student",
          "type": "address"
        },
        {
          "indexed": true,
          "internalType": "uint256",
          "name": "index",
          "type": "uint256"
        },
        {
          "indexed": true,
          "internalType": "address",
          "name": "updater",
          "type": "address"
        },
        {
          "indexed": false,
          "internalType": "bytes32",
          "name": "newRecordHash",
          "type": "bytes32"
        },
        {
          "indexed": false,
          "internalType": "string",
          "name": "newIpfsHash",
          "type": "string"
        },
        {
          "indexed": false,
          "internalType": "uint256",
          "name": "timestamp",
          "type": "uint256"
        }
      ],
      "name": "CredentialUpdated",
      "type": "event"
    },
    {
      "anonymous": false,
      "inputs": [
        {
          "indexed": true,
          "internalType": "bytes32",
          "name": "role",
          "type": "bytes32"
        },
        {
          "indexed": true,
          "internalType": "bytes32",
          "name": "previousAdminRole",
          "type": "bytes32"
        },
        {
          "indexed": true,
          "internalType": "bytes32",
          "name": "newAdminRole",
          "type": "bytes32"
        }
      ],
      "name": "RoleAdminChanged",
      "type": "event"
    },
    {
      "anonymous": false,
      "inputs": [
        {
          "indexed": true,
          "internalType": "bytes32",
          "name": "role",
          "type": "bytes32"
        },
        {
          "indexed": true,
          "internalType": "address",
          "name": "account",
          "type": "address"
        },
        {
          "indexed": true,
          "internalType": "address",
          "name": "sender",
          "type": "address"
        }
      ],
      "name": "RoleGranted",
      "type": "event"
    },
    {
      "anonymous": false,
      "inputs": [
        {
          "indexed": true,
          "internalType": "bytes32",
          "name": "role",
          "type": "bytes32"
        },
        {
          "indexed": true,
          "internalType": "address",
          "name": "account",
          "type": "address"
        },
        {
          "indexed": true,
          "internalType": "address",
          "name": "sender",
          "type": "address"
        }
      ],
      "name": "RoleRevoked",
      "type": "event"
    },
    {
      "inputs": [],
      "name": "ADMIN_ROLE",
      "outputs": [
        {
          "internalType": "bytes32",
          "name": "",
          "type": "bytes32"
        }
      ],
      "stateMutability": "view",
      "type": "function"
    },
    {
      "inputs": [],
      "name": "DEFAULT_ADMIN_ROLE",
      "outputs": [
        {
          "internalType": "bytes32",
          "name": "",
          "type": "bytes32"
        }
      ],
      "stateMutability": "view",
      "type": "function"
    },
    {
      "inputs": [
        {
          "internalType": "address",
          "name": "newAdmin",
          "type": "address"
        }
      ],
      "name": "addAdmin",
      "outputs": [],
      "stateMutability": "nonpayable",
      "type": "function"
    },
    {
      "inputs": [
        {
          "internalType": "address",
          "name": "student",
          "type": "address"
        },
        {
          "internalType": "uint256",
          "name": "index",
          "type": "uint256"
        }
      ],
      "name": "getCredential",
      "outputs": [
        {
          "components": [
            {
              "internalType": "bytes32",
              "name": "recordHash",
              "type": "bytes32"
            },
            {
              "internalType": "string",
              "name": "ipfsHash",
              "type": "string"
            },
            {
              "internalType": "uint256",
              "name": "timestamp",
              "type": "uint256"
            },
            {
              "internalType": "address",
              "name": "issuer",
              "type": "address"
            },
            {
              "internalType": "bool",
              "name": "valid",
              "type": "bool"
            }
          ],
          "internalType": "struct AcademicRecords.Credential",
          "name": "",
          "type": "tuple"
        }
      ],
      "stateMutability": "view",
      "type": "function"
    },
    {
      "inputs": [
        {
          "internalType": "address",
          "name": "student",
          "type": "address"
        }
      ],
      "name": "getCredentialCount",
      "outputs": [
        {
          "internalType": "uint256",
          "name": "",
          "type": "uint256"
        }
      ],
      "stateMutability": "view",
      "type": "function"
    },
    {
      "inputs": [
        {
          "internalType": "address",
          "name": "student",
          "type": "address"
        },
        {
          "internalType": "uint256",
          "name": "index",
          "type": "uint256"
        },
        {
          "internalType": "bytes32",
          "name": "recordHash",
          "type": "bytes32"
        }
      ],
      "name": "getCredentialDataByHash",
      "outputs": [
        {
          "internalType": "string",
          "name": "",
          "type": "string"
        }
      ],
      "stateMutability": "view",
      "type": "function"
    },
    {
      "inputs": [
        {
          "internalType": "bytes32",
          "name": "role",
          "type": "bytes32"
        }
      ],
      "name": "getRoleAdmin",
      "outputs": [
        {
          "internalType": "bytes32",
          "name": "",
          "type": "bytes32"
        }
      ],
      "stateMutability": "view",
      "type": "function"
    },
    {
      "inputs": [
        {
          "internalType": "bytes32",
          "name": "role",
          "type": "bytes32"
        },
        {
          "internalType": "address",
          "name": "account",
          "type": "address"
        }
      ],
      "name": "grantRole",
      "outputs": [],
      "stateMutability": "nonpayable",
      "type": "function"
    },
    {
      "inputs": [
        {
          "internalType": "bytes32",
          "name": "role",
          "type": "bytes32"
        },
        {
          "internalType": "address",
          "name": "account",
          "type": "address"
        }
      ],
      "name": "hasRole",
      "outputs": [
        {
          "internalType": "bool",
          "name": "",
          "type": "bool"
        }
      ],
      "stateMutability": "view",
      "type": "function"
    },
    {
      "inputs": [
        {
          "internalType": "address",
          "name": "student",
          "type": "address"
        },
        {
          "internalType": "bytes32",
          "name": "recordHash",
          "type": "bytes32"
        },
        {
          "internalType": "string",
          "name": "ipfsHash",
          "type": "string"
        }
      ],
      "name": "issueCredential",
      "outputs": [
        {
          "internalType": "uint256",
          "name": "",
          "type": "uint256"
        }
      ],
      "stateMutability": "nonpayable",
      "type": "function"
    },
    {
      "inputs": [
        {
          "internalType": "bytes32",
          "name": "role",
          "type": "bytes32"
        },
        {
          "internalType": "address",
          "name": "callerConfirmation",
          "type": "address"
        }
      ],
      "name": "renounceRole",
      "outputs": [],
      "stateMutability": "nonpayable",
      "type": "function"
    },
    {
      "inputs": [
        {
          "internalType": "address",
          "name": "student",
          "type": "address"
        },
        {
          "internalType": "uint256",
          "name": "index",
          "type": "uint256"
        }
      ],
      "name": "revokeCredential",
      "outputs": [],
      "stateMutability": "nonpayable",
      "type": "function"
    },
    {
      "inputs": [
        {
          "internalType": "bytes32",
          "name": "role",
          "type": "bytes32"
        },
        {
          "internalType": "address",
          "name": "account",
          "type": "address"
        }
      ],
      "name": "revokeRole",
      "outputs": [],
      "stateMutability": "nonpayable",
      "type": "function"
    },
    {
      "inputs": [
        {
          "internalType": "bytes4",
          "name": "interfaceId",
          "type": "bytes4"
        }
      ],
      "name": "supportsInterface",
      "outputs": [
        {
          "internalType": "bool",
          "name": "",
          "type": "bool"
        }
      ],
      "stateMutability": "view",
      "type": "function"
    },
    {
      "inputs": [
        {
          "internalType": "address",
          "name": "student",
          "type": "address"
        },
        {
          "internalType": "uint256",
          "name": "index",
          "type": "uint256"
        },
        {
          "internalType": "bytes32",
          "name": "newRecordHash",
          "type": "bytes32"
        },
        {
          "internalType": "string",
          "name": "newIpfsHash",
          "type": "string"
        }
      ],
      "name": "updateCredential",
      "outputs": [],
      "stateMutability": "nonpayable",
      "type": "function"
    },
    {
      "inputs": [
        {
          "internalType": "address",
          "name": "student",
          "type": "address"
        },
        {
          "internalType": "uint256",
          "name": "index",
          "type": "uint256"
        },
        {
          "internalType": "bytes32",
          "name": "recordHash",
          "type": "bytes32"
        }
      ],
      "name": "verifyCredential",
      "outputs": [
        {
          "internalType": "bool",
          "name": "",
          "type": "bool"
        }
      ],
      "stateMutability": "view",
      "type": "function"
    }
  ],
  "bytecode": "0x608060405234801561001057600080fd5b5061001c60003361004d565b506100477fa49807205ce4d355092ef5a8a18f56e8913cf4a201fbe287825b095693c217753361004d565b506100f9565b6000828152602081815260408083206001600160a01b038516845290915281205460ff166100ef576000838152602081815260408083206001600160a01b03861684529091529020805460ff191660011790556100a73390565b6001600160a01b0316826001600160a01b0316847f2f8788117e7eff1d82e926ec794901d17c78024a50270940304540a733656f0d60405160405180910390a45060016100f3565b5060005b92915050565b611386806101086000396000f3fe608060405234801561001057600080fd5b50600436106101005760003560e01c806375b238fc11610097578063a217fddf11610066578063a217fddf14610243578063acc5bb811461024b578063d547741f1461025e578063d63bd6a81461027157600080fd5b806375b238fc146101e857806376d4fe84146101fd5780637c4f4e0b1461021057806391d148541461023057600080fd5b80632f2ff15d116100d35780632f2ff15d1461019c57806336568abe146101af57806370480275146101c25780637106b2fc146101d557600080fd5b806301ffc9a71461010557806304350af91461012d578063248a9ca3146101425780632d40599514610173575b600080fd5b610118610113366004610e38565b610291565b60405190151581526020015b60405180910390f35b61014061013b366004610f2a565b6102c8565b005b610165610150366004610f8b565b60009081526020819052604090206001015490565b604051908152602001610124565b610165610181366004610fa4565b6001600160a01b031660009081526001602052604090205490565b6101406101aa366004610fbf565b610435565b6101406101bd366004610fbf565b610460565b6101406101d0366004610fa4565b610498565b6101406101e3366004610feb565b610503565b61016560008051602061133183398151915281565b61011861020b366004611015565b610641565b61022361021e366004610feb565b6107a4565b604051610124919061108e565b61011861023e366004610fbf565b61091a565b610165600081565b6101656102593660046110e8565b610943565b61014061026c366004610fbf565b610adb565b61028461027f366004611015565b610b00565b604051610124919061113f565b60006001600160e01b03198216637965db0b60e01b14806102c257506301ffc9a760e01b6001600160e01b03198316145b92915050565b6000805160206113318339815191526102e081610cf1565b6001600160a01b03851660009081526001602052604090205484106103205760405162461bcd60e51b815260040161031790611152565b60405180910390fd5b6001600160a01b038516600090815260016020526040812080548690811061034a5761034a611189565b906000526020600020906004020190508060030160149054906101000a900460ff166103c25760405162461bcd60e51b815260206004820152602160248201527f43726564656e7469616c207265766f6b65642c2063616e6e6f742075706461746044820152606560f81b6064820152608401610317565b838155600181016103d38482611227565b50428160020181905550336001600160a01b031685876001600160a01b03167ff9f543c48b74ccc2da94ad8622d0edbcd98ba5bceb855be2b6ec82af205b02bf878742604051610425939291906112e6565b60405180910390a4505050505050565b60008281526020819052604090206001015461045081610cf1565b61045a8383610cfe565b50505050565b6001600160a01b03811633146104895760405163334bd91960e11b815260040160405180910390fd5b6104938282610d90565b505050565b60006104a381610cf1565b6001600160a01b0382166104eb5760405162461bcd60e51b815260206004820152600f60248201526e496e76616c6964206164647265737360881b6044820152606401610317565b61049360008051602061133183398151915283610cfe565b60008051602061133183398151915261051b81610cf1565b6001600160a01b03831660009081526001602052604090205482106105525760405162461bcd60e51b815260040161031790611152565b6001600160a01b038316600090815260016020526040812080548490811061057c5761057c611189565b906000526020600020906004020190508060030160149054906101000a900460ff166105ea5760405162461bcd60e51b815260206004820152601a60248201527f43726564656e7469616c20616c7265616479207265766f6b65640000000000006044820152606401610317565b60038101805460ff60a01b19169055604051428152339084906001600160a01b038716907fe660bc761b695a336bda62fe84df6a8f272424d3b185b63c3bd901cc2eddd38c9060200160405180910390a450505050565b6001600160a01b03831660009081526001602052604081205483106106785760405162461bcd60e51b815260040161031790611152565b6001600160a01b03841660009081526001602052604081208054859081106106a2576106a2611189565b90600052602060002090600402016040518060a0016040529081600082015481526020016001820180546106d59061119f565b80601f01602080910402602001604051908101604052809291908181526020018280546107019061119f565b801561074e5780601f106107235761010080835404028352916020019161074e565b820191906000526020600020905b81548152906001019060200180831161073157829003601f168201915b5050509183525050600282015460208201526003909101546001600160a01b0381166040830152600160a01b900460ff1615156060909101526080810151909150801561079b5750805183145b95945050505050565b6040805160a081018252600080825260606020808401829052838501839052908301829052608083018290526001600160a01b038616825260019052919091205482106108035760405162461bcd60e51b815260040161031790611152565b6001600160a01b038316600090815260016020526040902080548390811061082d5761082d611189565b90600052602060002090600402016040518060a0016040529081600082015481526020016001820180546108609061119f565b80601f016020809104026020016040519081016040528092919081815260200182805461088c9061119f565b80156108d95780601f106108ae576101008083540402835291602001916108d9565b820191906000526020600020905b8154815290600101906020018083116108bc57829003601f168201915b5050509183525050600282015460208201526003909101546001600160a01b0381166040830152600160a01b900460ff161515606090910152905092915050565b6000918252602082815260408084206001600160a01b0393909316845291905290205460ff1690565b600060008051602061133183398151915261095d81610cf1565b6001600160a01b0385166109b35760405162461bcd60e51b815260206004820152601760248201527f496e76616c69642073747564656e7420616464726573730000000000000000006044820152606401610317565b6040805160a081018252858152602080820186815242838501523360608401526001608084018190526001600160a01b038a16600090815281845294852080548083018255908652929094208351600490930201918255519192839290820190610a1d9082611227565b5060408281015160028301556060830151600390920180546080909401511515600160a01b026001600160a81b03199094166001600160a01b0393841617939093179092558716600090815260016020819052918120549091610a7f9161130f565b9050336001600160a01b031681886001600160a01b03167f617813a824224d91dd9aae2ec9500d7e2045f077d02a028f1da2d88e95a73bb5898942604051610ac9939291906112e6565b60405180910390a49695505050505050565b600082815260208190526040902060010154610af681610cf1565b61045a8383610d90565b6001600160a01b0383166000908152600160205260409020546060908310610b3a5760405162461bcd60e51b815260040161031790611152565b6001600160a01b0384166000908152600160205260408120805485908110610b6457610b64611189565b90600052602060002090600402016040518060a001604052908160008201548152602001600182018054610b979061119f565b80601f0160208091040260200160405190810160405280929190818152602001828054610bc39061119f565b8015610c105780601f10610be557610100808354040283529160200191610c10565b820191906000526020600020905b815481529060010190602001808311610bf357829003601f168201915b5050509183525050600282015460208201526003909101546001600160a01b0381166040830152600160a01b900460ff1615156060909101526080810151909150610c955760405162461bcd60e51b815260206004820152601560248201527410dc9959195b9d1a585b081a5cc81c995d9bdad959605a1b6044820152606401610317565b80518314610ce55760405162461bcd60e51b815260206004820152601a60248201527f5265636f7264206861736820646f6573206e6f74206d617463680000000000006044820152606401610317565b60200151949350505050565b610cfb8133610dfb565b50565b6000610d0a838361091a565b610d88576000838152602081815260408083206001600160a01b03861684529091529020805460ff19166001179055610d403390565b6001600160a01b0316826001600160a01b0316847f2f8788117e7eff1d82e926ec794901d17c78024a50270940304540a733656f0d60405160405180910390a45060016102c2565b5060006102c2565b6000610d9c838361091a565b15610d88576000838152602081815260408083206001600160a01b0386168085529252808320805460ff1916905551339286917ff6391f5c32d9c69d2a47ea670b442974b53935d1edc7fd64eb21e047a839171b9190a45060016102c2565b610e05828261091a565b610e345760405163e2517d3f60e01b81526001600160a01b038216600482015260248101839052604401610317565b5050565b600060208284031215610e4a57600080fd5b81356001600160e01b031981168114610e6257600080fd5b9392505050565b80356001600160a01b0381168114610e8057600080fd5b919050565b634e487b7160e01b600052604160045260246000fd5b600082601f830112610eac57600080fd5b813567ffffffffffffffff811115610ec657610ec6610e85565b604051601f8201601f19908116603f0116810167ffffffffffffffff81118282101715610ef557610ef5610e85565b604052818152838201602001851015610f0d57600080fd5b816020850160208301376000918101602001919091529392505050565b60008060008060808587031215610f4057600080fd5b610f4985610e69565b93506020850135925060408501359150606085013567ffffffffffffffff811115610f7357600080fd5b610f7f87828801610e9b565b91505092959194509250565b600060208284031215610f9d57600080fd5b5035919050565b600060208284031215610fb657600080fd5b610e6282610e69565b60008060408385031215610fd257600080fd5b82359150610fe260208401610e69565b90509250929050565b60008060408385031215610ffe57600080fd5b61100783610e69565b946020939093013593505050565b60008060006060848603121561102a57600080fd5b61103384610e69565b95602085013595506040909401359392505050565b6000815180845260005b8181101561106e57602081850181015186830182015201611052565b506000602082860101526020601f19601f83011685010191505092915050565b60208152815160208201526000602083015160a060408401526110b460c0840182611048565b90506040840151606084015260018060a01b0360608501511660808401526080840151151560a08401528091505092915050565b6000806000606084860312156110fd57600080fd5b61110684610e69565b925060208401359150604084013567ffffffffffffffff81111561112957600080fd5b61113586828701610e9b565b9150509250925092565b602081526000610e626020830184611048565b60208082526018908201527f496e76616c69642063726564656e7469616c20696e6465780000000000000000604082015260600190565b634e487b7160e01b600052603260045260246000fd5b600181811c908216806111b357607f821691505b6020821081036111d357634e487b7160e01b600052602260045260246000fd5b50919050565b601f82111561049357806000526020600020601f840160051c810160208510156112005750805b601f840160051c820191505b81811015611220576000815560010161120c565b5050505050565b815167ffffffffffffffff81111561124157611241610e85565b6112558161124f845461119f565b846111d9565b6020601f82116001811461128957600083156112715750848201515b600019600385901b1c1916600184901b178455611220565b600084815260208120601f198516915b828110156112b95787850151825560209485019460019092019101611299565b50848210156112d75786840151600019600387901b60f8161c191681555b50505050600190811b01905550565b8381526060602082015260006112ff6060830185611048565b9050826040830152949350505050565b818103818111156102c257634e487b7160e01b600052601160045260246000fdfea49807205ce4d355092ef5a8a18f56e8913cf4a201fbe287825b095693c21775a26469706673582212200ae4479389ee56ffffee0df7b57b72eb282e8d751e5c1ad224e8fbcef898641264736f6c634300081c0033",
  "linkReferences": {},
  "deployedLinkReferences": {}
}