{
  "_format": "hh-sol-artifact-1",
  "contractName": "StudentDirectory",
  "sourceName": "contracts/StudentDirectory.sol",
  "abi": [
    {
      "inputs": [],
      "stateMutability": "nonpayable",
      "type": "constructor"
    },
    {
      "inputs": [],
      "name": "AccessControlBadConfirmation",
      "type": "error"
    },
    {
      "inputs": [
        {
          "internalType": "address",
          "name": "account",
          "type": "address"
        },
        {
          "internalType": "bytes32",
          "name": "neededRole",
          "type": "bytes32"
        }
      ],
      "name": "AccessControlUnauthorizedAccount",
      "type": "error"
    },
    {
      "anonymous": false,
      "inputs": [
        {
          "indexed": true,
          "internalType": "bytes32",
          "name": "role",
          "type": "bytes32"
        },
        {
          "indexed": true,
          "internalType": "bytes32",
          "name": "previousAdminRole",
          "type": "bytes32"
        },
        {
          "indexed": true,
          "internalType": "bytes32",
          "name": "newAdminRole",
          "type": "bytes32"
        }
      ],
      "name": "RoleAdminChanged",
      "type": "event"
    },
    {
      "anonymous": false,
      "inputs": [
        {
          "indexed": true,
          "internalType": "bytes32",
          "name": "role",
          "type": "bytes32"
        },
        {
          "indexed": true,
          "internalType": "address",
          "name": "account",
          "type": "address"
        },
        {
          "indexed": true,
          "internalType": "address",
          "name": "sender",
          "type": "address"
        }
      ],
      "name": "RoleGranted",
      "type": "event"
    },
    {
      "anonymous": false,
      "inputs": [
        {
          "indexed": true,
          "internalType": "bytes32",
          "name": "role",
          "type": "bytes32"
        },
        {
          "indexed": true,
          "internalType": "address",
          "name": "account",
          "type": "address"
        },
        {
          "indexed": true,
          "internalType": "address",
          "name": "sender",
          "type": "address"
        }
      ],
      "name": "RoleRevoked",
      "type": "event"
    },
    {
      "anonymous": false,
      "inputs": [
        {
          "indexed": true,
          "internalType": "address",
          "name": "studentAddress",
          "type": "address"
        },
        {
          "indexed": false,
          "internalType": "uint256",
          "name": "timestamp",
          "type": "uint256"
        }
      ],
      "name": "StudentDeactivated",
      "type": "event"
    },
    {
      "anonymous": false,
      "inputs": [
        {
          "indexed": true,
          "internalType": "address",
          "name": "studentAddress",
          "type": "address"
        },
        {
          "indexed": false,
          "internalType": "uint256",
          "name": "timestamp",
          "type": "uint256"
        }
      ],
      "name": "StudentReactivated",
      "type": "event"
    },
    {
      "anonymous": false,
      "inputs": [
        {
          "indexed": true,
          "internalType": "address",
          "name": "studentAddress",
          "type": "address"
        },
        {
          "indexed": false,
          "internalType": "string",
          "name": "name",
          "type": "string"
        },
        {
          "indexed": false,
          "internalType": "string",
          "name": "surname",
          "type": "string"
        },
        {
          "indexed": false,
          "internalType": "string",
          "name": "secondSurname",
          "type": "string"
        },
        {
          "indexed": false,
          "internalType": "string",
          "name": "studies",
          "type": "string"
        },
        {
          "indexed": false,
          "internalType": "uint256",
          "name": "timestamp",
          "type": "uint256"
        }
      ],
      "name": "StudentRegistered",
      "type": "event"
    },
    {
      "anonymous": false,
      "inputs": [
        {
          "indexed": true,
          "internalType": "address",
          "name": "studentAddress",
          "type": "address"
        },
        {
          "indexed": false,
          "internalType": "string",
          "name": "name",
          "type": "string"
        },
        {
          "indexed": false,
          "internalType": "string",
          "name": "surname",
          "type": "string"
        },
        {
          "indexed": false,
          "internalType": "string",
          "name": "secondSurname",
          "type": "string"
        },
        {
          "indexed": false,
          "internalType": "string",
          "name": "studies",
          "type": "string"
        },
        {
          "indexed": false,
          "internalType": "uint256",
          "name": "timestamp",
          "type": "uint256"
        }
      ],
      "name": "StudentUpdated",
      "type": "event"
    },
    {
      "inputs": [],
      "name": "ADMIN_ROLE",
      "outputs": [
        {
          "internalType": "bytes32",
          "name": "",
          "type": "bytes32"
        }
      ],
      "stateMutability": "view",
      "type": "function"
    },
    {
      "inputs": [],
      "name": "DEFAULT_ADMIN_ROLE",
      "outputs": [
        {
          "internalType": "bytes32",
          "name": "",
          "type": "bytes32"
        }
      ],
      "stateMutability": "view",
      "type": "function"
    },
    {
      "inputs": [
        {
          "internalType": "address",
          "name": "newAdmin",
          "type": "address"
        }
      ],
      "name": "addAdmin",
      "outputs": [],
      "stateMutability": "nonpayable",
      "type": "function"
    },
    {
      "inputs": [
        {
          "internalType": "address",
          "name": "studentAddress",
          "type": "address"
        }
      ],
      "name": "deactivateStudent",
      "outputs": [],
      "stateMutability": "nonpayable",
      "type": "function"
    },
    {
      "inputs": [
        {
          "internalType": "bytes32",
          "name": "role",
          "type": "bytes32"
        }
      ],
      "name": "getRoleAdmin",
      "outputs": [
        {
          "internalType": "bytes32",
          "name": "",
          "type": "bytes32"
        }
      ],
      "stateMutability": "view",
      "type": "function"
    },
    {
      "inputs": [
        {
          "internalType": "address",
          "name": "studentAddress",
          "type": "address"
        }
      ],
      "name": "getStudent",
      "outputs": [
        {
          "components": [
            {
              "internalType": "string",
              "name": "name",
              "type": "string"
            },
            {
              "internalType": "string",
              "name": "surname",
              "type": "string"
            },
            {
              "internalType": "string",
              "name": "secondSurname",
              "type": "string"
            },
            {
              "internalType": "string",
              "name": "studies",
              "type": "string"
            },
            {
              "internalType": "bool",
              "name": "active",
              "type": "bool"
            }
          ],
          "internalType": "struct StudentDirectory.Student",
          "name": "",
          "type": "tuple"
        }
      ],
      "stateMutability": "view",
      "type": "function"
    },
    {
      "inputs": [
        {
          "internalType": "uint256",
          "name": "index",
          "type": "uint256"
        }
      ],
      "name": "getStudentAddressByIndex",
      "outputs": [
        {
          "internalType": "address",
          "name": "",
          "type": "address"
        }
      ],
      "stateMutability": "view",
      "type": "function"
    },
    {
      "inputs": [
        {
          "internalType": "uint256",
          "name": "startIndex",
          "type": "uint256"
        },
        {
          "internalType": "uint256",
          "name": "count",
          "type": "uint256"
        }
      ],
      "name": "getStudentAddressesBatch",
      "outputs": [
        {
          "internalType": "address[]",
          "name": "",
          "type": "address[]"
        }
      ],
      "stateMutability": "view",
      "type": "function"
    },
    {
      "inputs": [],
      "name": "getStudentCount",
      "outputs": [
        {
          "internalType": "uint256",
          "name": "",
          "type": "uint256"
        }
      ],
      "stateMutability": "view",
      "type": "function"
    },
    {
      "inputs": [
        {
          "internalType": "bytes32",
          "name": "role",
          "type": "bytes32"
        },
        {
          "internalType": "address",
          "name": "account",
          "type": "address"
        }
      ],
      "name": "grantRole",
      "outputs": [],
      "stateMutability": "nonpayable",
      "type": "function"
    },
    {
      "inputs": [
        {
          "internalType": "bytes32",
          "name": "role",
          "type": "bytes32"
        },
        {
          "internalType": "address",
          "name": "account",
          "type": "address"
        }
      ],
      "name": "hasRole",
      "outputs": [
        {
          "internalType": "bool",
          "name": "",
          "type": "bool"
        }
      ],
      "stateMutability": "view",
      "type": "function"
    },
    {
      "inputs": [
        {
          "internalType": "address",
          "name": "studentAddress",
          "type": "address"
        }
      ],
      "name": "isStudentRegistered",
      "outputs": [
        {
          "internalType": "bool",
          "name": "",
          "type": "bool"
        }
      ],
      "stateMutability": "view",
      "type": "function"
    },
    {
      "inputs": [
        {
          "internalType": "address",
          "name": "studentAddress",
          "type": "address"
        }
      ],
      "name": "reactivateStudent",
      "outputs": [],
      "stateMutability": "nonpayable",
      "type": "function"
    },
    {
      "inputs": [
        {
          "internalType": "address",
          "name": "studentAddress",
          "type": "address"
        },
        {
          "internalType": "string",
          "name": "name",
          "type": "string"
        },
        {
          "internalType": "string",
          "name": "surname",
          "type": "string"
        },
        {
          "internalType": "string",
          "name": "secondSurname",
          "type": "string"
        },
        {
          "internalType": "string",
          "name": "studies",
          "type": "string"
        }
      ],
      "name": "registerStudent",
      "outputs": [],
      "stateMutability": "nonpayable",
      "type": "function"
    },
    {
      "inputs": [
        {
          "internalType": "bytes32",
          "name": "role",
          "type": "bytes32"
        },
        {
          "internalType": "address",
          "name": "callerConfirmation",
          "type": "address"
        }
      ],
      "name": "renounceRole",
      "outputs": [],
      "stateMutability": "nonpayable",
      "type": "function"
    },
    {
      "inputs": [
        {
          "internalType": "bytes32",
          "name": "role",
          "type": "bytes32"
        },
        {
          "internalType": "address",
          "name": "account",
          "type": "address"
        }
      ],
      "name": "revokeRole",
      "outputs": [],
      "stateMutability": "nonpayable",
      "type": "function"
    },
    {
      "inputs": [
        {
          "internalType": "bytes4",
          "name": "interfaceId",
          "type": "bytes4"
        }
      ],
      "name": "supportsInterface",
      "outputs": [
        {
          "internalType": "bool",
          "name": "",
          "type": "bool"
        }
      ],
      "stateMutability": "view",
      "type": "function"
    },
    {
      "inputs": [
        {
          "internalType": "address",
          "name": "studentAddress",
          "type": "address"
        },
        {
          "internalType": "string",
          "name": "name",
          "type": "string"
        },
        {
          "internalType": "string",
          "name": "surname",
          "type": "string"
        },
        {
          "internalType": "string",
          "name": "secondSurname",
          "type": "string"
        },
        {
          "internalType": "string",
          "name": "studies",
          "type": "string"
        }
      ],
      "name": "updateStudent",
      "outputs": [],
      "stateMutability": "nonpayable",
      "type": "function"
    }
  ],
  "bytecode": "0x608060405234801561001057600080fd5b5061001c60003361004d565b506100477fa49807205ce4d355092ef5a8a18f56e8913cf4a201fbe287825b095693c217753361004d565b506100f9565b6000828152602081815260408083206001600160a01b038516845290915281205460ff166100ef576000838152602081815260408083206001600160a01b03861684529091529020805460ff191660011790556100a73390565b6001600160a01b0316826001600160a01b0316847f2f8788117e7eff1d82e926ec794901d17c78024a50270940304540a733656f0d60405160405180910390a45060016100f3565b5060005b92915050565b611570806101086000396000f3fe608060405234801561001057600080fd5b50600436106101165760003560e01c806370480275116100a2578063ac6c54fd11610071578063ac6c54fd14610258578063b8b2e42c1461026b578063d547741f1461027e578063e1b042c614610291578063e7ef9e75146102a457600080fd5b8063704802751461021557806375b238fc1461022857806391d148541461023d578063a217fddf1461025057600080fd5b80632f2ff15d116100e95780632f2ff15d146101b457806336568abe146101c757806341e0c407146101da5780635817e9d8146101e25780636b7b44d7146101f557600080fd5b806301ffc9a71461011b578063124c87c9146101435780631c45edfc1461016e578063248a9ca314610183575b600080fd5b61012e610129366004610f8c565b6102c4565b60405190151581526020015b60405180910390f35b610156610151366004610fbd565b6102fb565b6040516001600160a01b03909116815260200161013a565b61018161017c366004610ff2565b610378565b005b6101a6610191366004610fbd565b60009081526020819052604090206001015490565b60405190815260200161013a565b6101816101c236600461100d565b61049e565b6101816101d536600461100d565b6104c9565b6002546101a6565b6101816101f03660046110de565b610501565b610208610203366004610ff2565b610724565b60405161013a91906111f5565b610181610223366004610ff2565b610a1b565b6101a660008051602061151b83398151915281565b61012e61024b36600461100d565b610a86565b6101a6600081565b6101816102663660046110de565b610aaf565b61012e610279366004610ff2565b610b9b565b61018161028c36600461100d565b610bcb565b61018161029f366004610ff2565b610bf0565b6102b76102b2366004611283565b610d07565b60405161013a91906112a5565b60006001600160e01b03198216637965db0b60e01b14806102f557506301ffc9a760e01b6001600160e01b03198316145b92915050565b600254600090821061034a5760405162461bcd60e51b8152602060048201526013602482015272496e646578206f7574206f6620626f756e647360681b60448201526064015b60405180910390fd5b6002828154811061035d5761035d6112f1565b6000918252602090912001546001600160a01b031692915050565b60008051602061151b83398151915261039081610e45565b6001600160a01b038216600090815260016020526040812080546103b390611307565b9050116103d25760405162461bcd60e51b815260040161034190611341565b6001600160a01b03821660009081526001602052604090206004015460ff1661043d5760405162461bcd60e51b815260206004820152601b60248201527f53747564656e7420616c726561647920646561637469766174656400000000006044820152606401610341565b6001600160a01b03821660008181526001602052604090819020600401805460ff19169055517fda35927fe7df058ac43d0da5138724d7a6cefc054da96611487acf30e2394281906104929042815260200190565b60405180910390a25050565b6000828152602081905260409020600101546104b981610e45565b6104c38383610e52565b50505050565b6001600160a01b03811633146104f25760405163334bd91960e11b815260040160405180910390fd5b6104fc8282610ee4565b505050565b60008051602061151b83398151915261051981610e45565b6001600160a01b03861661056f5760405162461bcd60e51b815260206004820152601760248201527f496e76616c69642073747564656e7420616464726573730000000000000000006044820152606401610341565b6001600160a01b0386166000908152600160205260409020805461059290611307565b1590506105e15760405162461bcd60e51b815260206004820152601a60248201527f53747564656e7420616c726561647920726567697374657265640000000000006044820152606401610341565b6040805160a0810182528681526020808201879052818301869052606082018590526001608083018190526001600160a01b038a1660009081529152919091208151829190819061063290826113bf565b506020820151600182019061064790826113bf565b506040820151600282019061065c90826113bf565b506060820151600382019061067190826113bf565b50608091909101516004909101805460ff1916911515919091179055600280546001810182556000919091527f405787fa12a823e0f2b7631cc41b3ba8828b3321ca811111fa75cd3aa3bb5ace0180546001600160a01b0319166001600160a01b0389169081179091556040517fa95b8ebb220b8da6253ccf14c250a1c38deeb6b90ed6a93f1d0f8a8e7819d0f490610713908990899089908990429061147e565b60405180910390a250505050505050565b6107586040518060a00160405280606081526020016060815260200160608152602001606081526020016000151581525090565b6001600160a01b0382166000908152600160205260408120805461077b90611307565b90501161079a5760405162461bcd60e51b815260040161034190611341565b6001600160a01b03821660009081526001602052604090819020815160a081019092528054829082906107cc90611307565b80601f01602080910402602001604051908101604052809291908181526020018280546107f890611307565b80156108455780601f1061081a57610100808354040283529160200191610845565b820191906000526020600020905b81548152906001019060200180831161082857829003601f168201915b5050505050815260200160018201805461085e90611307565b80601f016020809104026020016040519081016040528092919081815260200182805461088a90611307565b80156108d75780601f106108ac576101008083540402835291602001916108d7565b820191906000526020600020905b8154815290600101906020018083116108ba57829003601f168201915b505050505081526020016002820180546108f090611307565b80601f016020809104026020016040519081016040528092919081815260200182805461091c90611307565b80156109695780601f1061093e57610100808354040283529160200191610969565b820191906000526020600020905b81548152906001019060200180831161094c57829003601f168201915b5050505050815260200160038201805461098290611307565b80601f01602080910402602001604051908101604052809291908181526020018280546109ae90611307565b80156109fb5780601f106109d0576101008083540402835291602001916109fb565b820191906000526020600020905b8154815290600101906020018083116109de57829003601f168201915b50505091835250506004919091015460ff16151560209091015292915050565b6000610a2681610e45565b6001600160a01b038216610a6e5760405162461bcd60e51b815260206004820152600f60248201526e496e76616c6964206164647265737360881b6044820152606401610341565b6104fc60008051602061151b83398151915283610e52565b6000918252602082815260408084206001600160a01b0393909316845291905290205460ff1690565b60008051602061151b833981519152610ac781610e45565b6001600160a01b03861660009081526001602052604081208054610aea90611307565b905011610b095760405162461bcd60e51b815260040161034190611341565b6001600160a01b038616600090815260016020526040902080610b2c87826113bf565b5060018101610b3b86826113bf565b5060028101610b4a85826113bf565b5060038101610b5984826113bf565b50866001600160a01b03167f23bc9910b06b4440a923ecc439f6e57a3bc500bebf0b8c6c90e9a73633344ea7878787874260405161071395949392919061147e565b6001600160a01b03811660009081526001602052604081208054829190610bc190611307565b9050119050919050565b600082815260208190526040902060010154610be681610e45565b6104c38383610ee4565b60008051602061151b833981519152610c0881610e45565b6001600160a01b03821660009081526001602052604081208054610c2b90611307565b905011610c4a5760405162461bcd60e51b815260040161034190611341565b6001600160a01b03821660009081526001602052604090206004015460ff1615610caf5760405162461bcd60e51b815260206004820152601660248201527553747564656e7420616c72656164792061637469766560501b6044820152606401610341565b6001600160a01b038216600081815260016020818152604092839020600401805460ff191690921790915590514281527f6b9420b2afd9eaa5ddb0bebe6da09ce680aa86eabbe0da51c461442db94a605d9101610492565b6002546060908310610d5b5760405162461bcd60e51b815260206004820152601960248201527f537461727420696e646578206f7574206f6620626f756e6473000000000000006044820152606401610341565b600254610d6883856114f4565b1115610d7f57600254610d7c908490611507565b91505b60008267ffffffffffffffff811115610d9a57610d9a611039565b604051908082528060200260200182016040528015610dc3578160200160208202803683370190505b50905060005b83811015610e3d576002610ddd82876114f4565b81548110610ded57610ded6112f1565b9060005260206000200160009054906101000a90046001600160a01b0316828281518110610e1d57610e1d6112f1565b6001600160a01b0390921660209283029190910190910152600101610dc9565b509392505050565b610e4f8133610f4f565b50565b6000610e5e8383610a86565b610edc576000838152602081815260408083206001600160a01b03861684529091529020805460ff19166001179055610e943390565b6001600160a01b0316826001600160a01b0316847f2f8788117e7eff1d82e926ec794901d17c78024a50270940304540a733656f0d60405160405180910390a45060016102f5565b5060006102f5565b6000610ef08383610a86565b15610edc576000838152602081815260408083206001600160a01b0386168085529252808320805460ff1916905551339286917ff6391f5c32d9c69d2a47ea670b442974b53935d1edc7fd64eb21e047a839171b9190a45060016102f5565b610f598282610a86565b610f885760405163e2517d3f60e01b81526001600160a01b038216600482015260248101839052604401610341565b5050565b600060208284031215610f9e57600080fd5b81356001600160e01b031981168114610fb657600080fd5b9392505050565b600060208284031215610fcf57600080fd5b5035919050565b80356001600160a01b0381168114610fed57600080fd5b919050565b60006020828403121561100457600080fd5b610fb682610fd6565b6000806040838503121561102057600080fd5b8235915061103060208401610fd6565b90509250929050565b634e487b7160e01b600052604160045260246000fd5b600082601f83011261106057600080fd5b813567ffffffffffffffff81111561107a5761107a611039565b604051601f8201601f19908116603f0116810167ffffffffffffffff811182821017156110a9576110a9611039565b6040528181528382016020018510156110c157600080fd5b816020850160208301376000918101602001919091529392505050565b600080600080600060a086880312156110f657600080fd5b6110ff86610fd6565b9450602086013567ffffffffffffffff81111561111b57600080fd5b6111278882890161104f565b945050604086013567ffffffffffffffff81111561114457600080fd5b6111508882890161104f565b935050606086013567ffffffffffffffff81111561116d57600080fd5b6111798882890161104f565b925050608086013567ffffffffffffffff81111561119657600080fd5b6111a28882890161104f565b9150509295509295909350565b6000815180845260005b818110156111d5576020818501810151868301820152016111b9565b506000602082860101526020601f19601f83011685010191505092915050565b602081526000825160a0602084015261121160c08401826111af565b90506020840151601f1984830301604085015261122e82826111af565b9150506040840151601f1984830301606085015261124c82826111af565b9150506060840151601f1984830301608085015261126a82826111af565b9150506080840151151560a08401528091505092915050565b6000806040838503121561129657600080fd5b50508035926020909101359150565b602080825282518282018190526000918401906040840190835b818110156112e65783516001600160a01b03168352602093840193909201916001016112bf565b509095945050505050565b634e487b7160e01b600052603260045260246000fd5b600181811c9082168061131b57607f821691505b60208210810361133b57634e487b7160e01b600052602260045260246000fd5b50919050565b60208082526016908201527514dd1d59195b9d081b9bdd081c9959da5cdd195c995960521b604082015260600190565b601f8211156104fc57806000526020600020601f840160051c810160208510156113985750805b601f840160051c820191505b818110156113b857600081556001016113a4565b5050505050565b815167ffffffffffffffff8111156113d9576113d9611039565b6113ed816113e78454611307565b84611371565b6020601f82116001811461142157600083156114095750848201515b600019600385901b1c1916600184901b1784556113b8565b600084815260208120601f198516915b828110156114515787850151825560209485019460019092019101611431565b508482101561146f5786840151600019600387901b60f8161c191681555b50505050600190811b01905550565b60a08152600061149160a08301886111af565b82810360208401526114a381886111af565b905082810360408401526114b781876111af565b905082810360608401526114cb81866111af565b9150508260808301529695505050505050565b634e487b7160e01b600052601160045260246000fd5b808201808211156102f5576102f56114de565b818103818111156102f5576102f56114de56fea49807205ce4d355092ef5a8a18f56e8913cf4a201fbe287825b095693c21775a26469706673582212208c85d602d451484bda43d1c4249b0885d7609bb0c25b5f313028db77176a781164736f6c634300081c0033",
  "linkReferences": {},
  "deployedLinkReferences": {}
}